:0400000058EF00F0C5
:100008001682FACF01F0FBCF02F0E9CF03F0EACF76
:1000180004F0E1CF05F0E2CF06F0D9CF07F0DACF50
:1000280008F0F3CF09F0F4CF0AF0F6CF0BF0F7CFD2
:100038000CF0F8CF0DF0F5CF0EF016C00FF017C08A
:1000480010F018C011F019C012F09EBA9DAA06D07F
:10005800ABA4ABB203D0010E156E9D9A12C019F075
:1000680011C018F010C017F00FC016F00EC0F5FF41
:100078000DC0F8FF0CC0F7FF0BC0F6FF0AC0F4FF75
:1000880009C0F3FF08C0DAFF07C0D9FF06C0E2FFC6
:1000980005C0E1FF04C0EAFF03C0E9FF02C0FBFF9F
:1000A80001C0FAFF169211007DEF00F0000E146EE9
:1000B800000E136E660E0E012A6F110E0E011F6FD1
:1000C800000E676E260EAC6E900EAB6ECF0EAF6E46
:1000D8009F9A9D8AD08EF28EF28CAA0EAD6E155024
:1000E800D8B4FDD7AECF14F0000E156E9D8AF00E71
:0E00F800F5D7156A1690169200015AEF00F027
:020000040001F9
:10FFF000A0F7AFFF33F0FFF703FFFFFF1DF0F8F3AB
:00000001FF
