:0400000080EF00F09D
:100008004C82FACF01F0FBCF02F0E9CF03F0EACF40
:1000180004F0E1CF05F0E2CF06F0D9CF07F0DACF50
:1000280008F0F3CF09F0F4CF0AF0F6CF0BF0F7CFD2
:100038000CF0F8CF0DF0F5CF0EF04CC00FF04DC01E
:1000480010F04EC011F04FC012F09EBA9DAA20D0F9
:10005800ABB402D0ABA203D0010E3F6E19D0AECF25
:1000680041F0010E3E6E09D0010E3D6E10D0010E1A
:100078003C6E0DD0010E3B6E0AD04150AA0AD8B48E
:10008800F3D7110AD8B4F3D7770AD8B4F3D79D9A1F
:10009800F0B0F0A604D0010E3A6EF096F090F2B4EB
:1000A800F2AA04D0010E396EF294F29A12C04FF0FF
:1000B80011C04EF010C04DF00FC04CF00EC0F5FF4F
:1000C8000DC0F8FF0CC0F7FF0BC0F6FF0AC0F4FF25
:1000D80009C0F3FF08C0DAFF07C0D9FF06C0E2FF76
:1000E80005C0E1FF04C0EAFF03C0E9FF02C0FBFF4F
:0C00F80001C0FAFF4C921100F1EF0AF079
:100E00000001000A006400E80310274520204E205E
:100E100020442020204720204120204D2020452014
:100E200000504F494E54532042554C4C455453208A
:100E300054494D45002020454D42454444454420F9
:100E4000554E4956455253450053202054202041C9
:100E5000202052202054202100504F494E5453202E
:100E6000002020002564000065EC0BF0E8EC0BF09E
:100E700002EC0CF0CAEC0BF0DAEC0BF024EC0BF00B
:100E8000D4EC0AF0D58ED6D03950D8B405D0344A37
:100E9000352A000E396EF28A4850341806E149505E
:100EA0003518D8A402D0050E436E32C060F033C0AE
:100EB00061F098EC0BF04AC060F04BC061F087EC39
:100EC0000BF034C062F035C063F00001621F631F95
:100ED000624B632B4850000162250001606F49504E
:100EE000000163210001616F76EC0BF090D0440E9D
:100EF000136E000E146E52EC0BF044C013F045C09C
:100F000014F026EC0CF0440E136E000E146ED3ECAD
:100F100008F0040E56D0324A332A010E52D03D500A
:100F2000D8B405D0000E4B6E0C0E4A6E69D03C5002
:100F3000D8B408D015EC0CF04250BAEC0BF0000E0F
:100F40003C6E60D03B50D8B422D04A504B10D8B43D
:100F50001ED02EEC0CF0000E0001656F000E646FC9
:100F6000000165BF08D0100E0001645D270E00016E
:100F70006559D8B004D00001644B652BF1D72CEC37
:100F80000CF04A06D8A04B06000E3B6E3BD04A50F0
:100F90004B10D8A402D0030E14D03A50D8B44AD083
:100FA00042500001626F636B46500001621942E1DA
:100FB000475000016319D8A43DD0000E3A6EF08668
:100FC000020E436E37D0364A372A880E36180AE1A9
:100FD000130E3718D8A406D01EEC0CF0000E376E96
:100FE000000E366E3D50D8B425D0000E4B6E0C0E60
:100FF0004A6E4250BAEC0BF0000E376E000E366EA1
:10100000000E3D6E9D8A16D0010E386E13D04350EF
:10101000000AD8B40FD0010AD8B469D7030AD8B4EB
:101020007AD7010AD8B4CFD7070AD8B478D7010A3B
:10103000D8B4EAD73850D8B427D732C02DF033C04F
:101040002EF0ADEC09F080EF00F0230E266E000EBE
:10105000276E94D0250E2C18D8B409D01FC0D9FF04
:1010600020C0DAFF2CC0DFFF1F4A202A87D0000EE5
:10107000286E21C0F6FF22C0F7FF214A222A000E67
:10108000F86E0800F5CF2CF02C50000AD8B484D0AC
:10109000640AD8B403D00D0AD8A470D026C0D9FFF2
:1010A00027C0DAFFDECF2AF0DDCF2BF0020E262696
:1010B000000E27222BAE06D0030E28122A6C2B1E00
:1010C000D8B02B2A010E2C6E050E2C18D8B415D0D2
:1010D0002C50020D010EF324F66E0E0EF420F76E66
:1010E000F86A000EF8220900F5502A5C0900F55054
:1010F0002B58D8A002D02C2AE7D728C025F0030E01
:101100002516D8B408D01FC0D9FF20C0DAFF2D0E95
:10111000DF6E1F4A202A2CC029F02CD02950020D46
:10112000010EF324F66E0E0EF420F76EF86A000E30
:10113000F8220900F5CF15F00A00F5CF16F02AC005
:1011400013F02BC014F0DAEC09F013C01AF014C03D
:101150001BF0000E1D6E0A0E1C6E74EC0AF01A5085
:10116000300F2C6E1FC0D9FF20C0DAFF2CC0DFFF6C
:101170001F4A202A29062928D8A4D0D721C0F6FF43
:1011800022C0F7FF214A222A000EF86E0800F5CF90
:101190002CF02C50D8A45ED71FC0D9FF20C0DAFF96
:1011A000000EDF6E1200000E1C6E000E1B6E13C0D0
:1011B000D9FF14C0DAFF010EDBBE07D0010EDB50F1
:1011C00028E1030EDE5CD8B024D020EE02F01350EC
:1011D000D9261450DA22DECF15F0DDCF16F013C079
:1011E000D9FF14C0DAFFDECF17F0DDCF18F0D890AA
:1011F00017361836155017261650182217501B266A
:1012000018501C22F00E1B26000E1C221BC08BFF48
:101210001200A00E156EFF0E166E20EE02F0135097
:10122000D9261450DA22DECF17F0DDCF18F013C024
:10123000D9FF14C0DAFFDECF19F0DDCF1AF0D89055
:1012400019361A361750192618501A22193A1A3A0E
:10125000F00E1A1619500F0B1A12F00E191615501F
:10126000192616501A2219501B261A501C220F0E2E
:101270001B26000E1C221BC08BFF1200000E1C6ED2
:10128000000E1B6E1BD01B501724196E1C5018200B
:101290001A6E19C0F6FF1AC0F7FF000EF86E0D0E99
:1012A000F76403D00800F55005D0F6CFE9FFF7CF7B
:1012B000EAFFEF500CEC0BF01B4A1C2A1B501724C2
:1012C000196E1C5018201A6E19C0F6FF1AC0F7FFCD
:1012D000000EF86E0D0EF76403D00800F55005D02F
:1012E000F6CFE9FFF7CFEAFFEF500009D8B41200BC
:1012F000CAD72F0E1F6E000E206E640E216E0E0ECA
:10130000226E2DC023F02EC024F025EC08F02E50C4
:1013100011E1640E2D5CD8B00DD02E5004E10A0E00
:101320002D5CD8A007D0620E176E0E0E186E3EEC24
:1013300009F00CD02E500AE10A0E2D5CD8B006D070
:10134000610E176E0E0E186E3EEC09F02F0E176E22
:10135000000E186E3EEC09F01200A9EC0BF02F0EF7
:101360001F6E000E206E640E216E0E0E226E2DC0BA
:1013700023F02EC024F025EC08F00B0E176E0E0E95
:10138000186E3EEC09F0000E176E010E166E000E80
:10139000196E000E186E2CEC0AF0590E176E0E0E18
:1013A000186E3EEC09F02F0E176E000E186E3EEC14
:1013B00009F01200000E196E000E186E155016106E
:1013C000D8B41CD0010E176E04D0D890153616363E
:1013D000172A16AEFAD7D890183619361550135C5E
:1013E00016501458D8A005D01550135E1650145A34
:1013F0001880D89016321532172EEDD718C013F07A
:1014000019C014F01200156E15C013F00F0E13164C
:10141000133AF00E131615380F0B0F0B1310156E31
:1014200015C013F0330E1316D8901336D890133618
:101430001540E8423F0B330B1310156E15C013F027
:10144000550E1316D8901334146ED8901530550BD2
:101450001410156E155012001650140DF350182468
:101460001A6E17BE08D0175004E1020E165CD8A001
:1014700002D0180E1A261A5003EC0AF01A6EF5EC78
:101480000BF00009D8A4FBD78C96F80E0CEC0CF0EE
:101490001A50F00B0CEC0CF01A38F00B10090CEC95
:1014A0000CF01200176E16C018F0D89018361550B0
:1014B0001826D890183617501826D8901836182A9B
:1014C000183AF00E1816F5EC0BF00009D8A4FBD76B
:1014D0008C96F80E0CEC0CF018500CEC0CF0000E86
:1014E0000CEC0CF08C8612001C501D10D8B418D0D7
:1014F000010E1E6E04D0D8901C361D361E2A1DAE5D
:10150000FAD71C501A5C1D501B58D8A004D01C5090
:101510001A5E1D501B5AD8901D321C321E2EF1D758
:101520001AC01AF01BC01BF01200D3507009D36E02
:10153000959895949596958294908C8600F0560E89
:10154000136EB60EE82EFED7132EFCD7560E136E72
:10155000B60EE82EFED7132EFCD7560E136EB60E1F
:10156000E82EFED7132EFCD712000E011E85F40EB6
:101570000E011E17050E0E011D13F50E0E011D178F
:10158000500E0E0130135F0E0E013017F10E0F01D9
:101590001917310E0F0119130F011A8F0F011A9D20
:1015A0008F0E0F0139171200000E176E010E166E06
:1015B000000E196E030E186E2CEC0AF0490E176E11
:1015C0000E0E186E3EEC09F03BEC0BF03BEC0BF012
:1015D000A9EC0BF0210E176E0E0E186E3EEC09F002
:1015E0001200540EF66E180EF76E000EF86E00EE36
:1015F00048F010EE04F00900F5CFEEFFE550E150A1
:10160000FAE100EE32F0160EEE6AE806FDE14C90CB
:101610004C92000134EF07F0166E165003EC0AF0FE
:10162000166EF5EC0BF00009D8A4FBD78C96FA0ED9
:101630000CEC0CF01650F00B0CEC0CF01638F00B18
:101640000CEC0CF08C861200000E176E010E166E5C
:10165000000E196E000E186E2CEC0AF0350E176E87
:101660000E0E186E3EEC09F03BEC0BF03BEC0BF071
:10167000A9EC0BF01200000E156E000E146E15BED4
:1016800006D015500EE1140E145CD8B01200820E74
:10169000136EDE0EE82EFED7132EFCD7144A152A41
:1016A000EED7120013C0D9FF14C0DAFF000EDE6EB1
:1016B000000EDD6E20EE02F01350D9261450DA220F
:1016C000000EDE6E000EDD6E1200660E0E012A6F39
:1016D000110E0E011F6F000E676E260EAC6E900E7F
:1016E000AB6E190EAF6EAA0EAD6E1200000E176E25
:1016F000020E166E000E196E100E186E2CEC0AF00B
:1017000060C02DF061C02EF079EC09F01200000EDF
:10171000176E020E166E000E196E090E186E2CEC66
:101720000AF060C02DF061C02EF079EC09F01200D3
:10173000000E176E020E166E000E196E010E186E58
:101740002CEC0AF060C02DF061C02EF079EC09F0AD
:101750001200F5EC0BF00009D8A4FBD78C96F80E1C
:101760000CEC0CF0800E0CEC0CF0000E0CEC0CF001
:101770008C861200136E06D08C808C9A12008C809E
:101780008C9A12001350000AD8B4F6D7010AD8A4D4
:101790001200F5D7F294F28A9F9A9D8AC10E0E012B
:1017A000376F928AF18AF090F09CF086D08EF28E9C
:1017B000F28C120095EC0AF0B5EC0AF0A9EC0BF0F3
:1017C000010E156E000E166E010E52EC0AF012009C
:1017D000000E0E01476FF80E9216180E9416DE0ECC
:1017E00095169392000E896E12008C96FC0E0CECEE
:1017F0000CF0000E0CEC0CF0146E8C8600D0145023
:10180000010B1200D59ED58CCF0ED516D596D5508E
:10181000F80B0609D56E1200136E13C003FF0F01FB
:101820001AA1FDD70F01035112004250D8A403D0D2
:10183000010E426E1200000E426E12008CB003D0F8
:101840008C808C8A12008C908C9A12001350020F9C
:10185000896E120005000C008A9212008A82120022
:020000040001F9
:10FFF000A0F7AFFF33F0FFF703FFFFFF1DF0F8F3AB
:00000001FF
