:04000000B2EF00F06B
:100008004C82FACF01F0FBCF02F0E9CF03F0EACF40
:1000180004F0E1CF05F0E2CF06F0D9CF07F0DACF50
:1000280008F0F3CF09F0F4CF0AF0F6CF0BF0F7CFD2
:100038000CF0F8CF0DF0F5CF0EF04CC00FF04DC01E
:1000480010F04EC011F04FC012F09EBA9DAA52D0C7
:10005800ABB402D0ABA203D0010E396E4BD0AECFF9
:100068003BF0010E386E26D0010E376E42D0010EDD
:10007800366E3FD0010E356E3CD0000E476E060E30
:1000880007D0000E476E0C0E03D0000E476E180EF8
:10009800466E2FD0000E496E1F0E07D0000E496E17
:1000A8003D0E03D0000E496E790E486E22D0010E27
:1000B800316E1FD03B500A0AD8B4DFD7010AD8B432
:1000C800E0D7070AD8B4E1D7AC0AD8B4E3D70A0A0C
:1000D800D8B4CAD71A0AD8B4E1D70B0AD8B4C7D744
:1000E8007B0AD8B4DFD70C0AD8B4C4D7110AD8B45D
:1000F800DED79D9AF0B0F0A604D0010E346EF096CB
:10010800F090F2B4F2AA04D0010E336EF294F29A8F
:1001180012C04FF011C04EF010C04DF00FC04CF09F
:100128000EC0F5FF0DC0F8FF0CC0F7FF0BC0F6FFBF
:100138000AC0F4FF09C0F3FF08C0DAFF07C0D9FFFF
:1001480006C0E2FF05C0E1FF04C0EAFF03C0E9FF03
:1001580002C0FBFF01C0FAFF4C921100E1EF0BF067
:100E00000001000A006400E80310274520204E205E
:100E100020442020204720204120204D2020452014
:100E200000504F494E54532042554C4C455453208A
:100E300054494D45002020454D42454444454420F9
:100E4000554E4956455253450053202054202041C9
:100E5000202052202054202100504F494E5453202E
:070E600020200025640000C2
:100E680042EC0CF0B6EC0CF0DFEC0CF0A7EC0CF05C
:100E7800C4EC0CF014EC0CF006D03850D8B403D005
:100E8800000E386E9D8A3150D8B4F7D7C4EC0BF0F9
:100E9800D58EE9D03350D8B405D02D4A2E2A000E6D
:100EA800336EF28A48502D1806E149502E18D8A4FE
:100EB80002D0050E3D6E2BC067F02CC068F075ECB3
:100EC8000CF04AC067F04BC068F064EC0CF02DC021
:100ED80069F02EC06AF00001691F6A1F694B6A2B0E
:100EE8004850000169250001676F495000016A21D7
:100EF8000001686F53EC0CF0A3D0000E2C6E000EAE
:100F08002B6E46C04AF047C04BF0C4EC0BF0D58EB0
:100F1800010E94D03E0E276E000E286E1DEC0BF0CD
:100F28003EC013F03FC014F008EC0DF03E0E136EF7
:100F3800000E146E05EC09F0040E80D02B4A2C2A02
:100F4800E7D73750D8B405D046C04AF047C04BF071
:100F580059D03650D8B408D0F2EC0CF03C5097EC8D
:100F68000CF0000E366E50D03550D8B422D04A500E
:100F78004B10D8B41ED00FEC0DF0000E00016C6FB2
:100F8800000E6B6F00016CBF08D0100E00016B5D86
:100F9800270E00016C59D8B004D000016B4B6C2BA4
:100FA800F1D70DEC0DF04A06D8A04B06000E356EB1
:100FB8002BD04A504B10D8A402D0030E3FD0345047
:100FC800D8B451D0000E346EF086020E37D02F4AB6
:100FD800302A140E2F183010D8A406D0FBEC0CF0D1
:100FE800000E306E000E2F6E3750D8B43CD046C07D
:100FF8004AF047C04BF03C5097EC0CF0000E306EB6
:10100800000E2F6E000E376E9D8A2DD0000E316EA9
:10101800D59EEE0EAD6E0ED02BC026F02CC027F05C
:10102800E6EC09F02BEC0CF03850D8B403D0000EE5
:10103800386E9D8A3150D8B4EFD7000E3D6E13D06C
:101048003D50000AD8B459D7010AD8B463D7030A67
:10105800D8B474D7010AD8B4BAD7070AD8B471D7A4
:10106800010AD8B4D3D73250D8B414D72BC026F03D
:101078002CC027F0E6EC09F02BEC0CF0F7D7230E88
:101088000001606F000E0001616FA5D0250E000100
:101098006619D8B409D01FC0D9FF20C0DAFF66C0CE
:1010A800DFFF1F4A202A97D0000E0001626F21C07F
:1010B800F6FF22C0F7FF214A222A000EF86E080028
:1010C800F5CF66F000016651000AD8B493D0640ADF
:1010D800D8B403D00D0AD8A47ED060C0D9FF61C0AF
:1010E800DAFFDECF64F0DDCF65F0020E0001602785
:1010F800000E6123000165AF08D0030E00016213E2
:101108000001646D651FD8B0652B010E0001666F84
:10111800050E00016619D8B419D000016651020DF8
:10112800010EF324F66E0E0EF420F76EF86A000E28
:10113800F8220900F5500001645D0900F55000012E
:101148006559D8A003D00001662BE2D762C025F00C
:10115800030E2516D8B408D01FC0D9FF20C0DAFF67
:101168002D0EDF6E1F4A202A66C063F02ED00001C4
:101178006351020D010EF324F66E0E0EF420F76E85
:10118800F86A000EF8220900F5CF15F00A00F5CF2D
:1011980016F064C013F065C014F07CEC0AF013C0BC
:1011A8001AF014C01BF0000E1D6E0A0E1C6E64ECC3
:1011B8000BF01A50300F0001666F1FC0D9FF20C016
:1011C800DAFF66C0DFFF1F4A202A0001630700011B
:1011D8006329D8A4CCD721C0F6FF22C0F7FF214A43
:1011E800222A000EF86E0800F5CF66F0000166515D
:1011F800D8A44CD71FC0D9FF20C0DAFF000EDF6E7D
:101208001200000E1C6E000E1B6E13C0D9FF14C016
:10121800DAFF010EDBBE07D0010EDB502EE1030E14
:10122800DE5CD8B02AD020EE02F01350D926145034
:10123800DA22DECF15F0DDCF16F013C0D9FF14C0C7
:10124800DAFFDECF17F0DDCF18F0D8901736183652
:101258001550172616501822D89017361836D890D9
:101268001736183617501B2618501C22E30E1B265B
:10127800000E1C221BC08BFF1200400E156EFF0EC5
:10128800166E20EE02F01350D9261450DA22DECF63
:1012980017F0DDCF18F013C0D9FF14C0DAFFDECF86
:1012A80019F0DDCF1AF0D89019361A3617501926CA
:1012B80018501A22050ED89019361A36E82EFBD780
:1012C8001550192616501A2219501B261A501C227E
:1012D8001F0E1B26000E1C221BC08BFF1200000EC7
:1012E8001C6E000E1B6E1BD01B501724196E1C5051
:1012F80018201A6E19C0F6FF1AC0F7FF000EF86E14
:101308000D0EF76403D00800F55005D0F6CFE9FFBD
:10131800F7CFEAFFEF50FCEC0BF01B4A1C2A1B50DE
:101328001724196E1C5018201A6E19C0F6FF1AC01F
:10133800F7FF000EF86E0D0EF76403D00800F550A5
:1013480005D0F6CFE9FFF7CFEAFFEF500009D8B490
:101358001200CAD7000E266E22AE06D0216C221EBD
:10136800D8B0222A010E266E24AE04D0236C241E87
:10137800D8B0242A23502410D8B418D0010E256ED2
:1013880004D0D89023362436252A24AEFAD7235001
:10139800215C24502258D8A004D02350215E245028
:1013A800225AD89024322332252EF1D72650D8B489
:1013B80004D0216C221ED8B0222A21C021F022C0DC
:1013C80022F0120086EC0CF0000E176E010E166E5D
:1013D800000E196E000E186EF7EC0AF0280E1F6E3C
:1013E800000E206E630E216E0E0E226E26C023F0B4
:1013F80027C024F043EC08F00B0E176E0E0E186E83
:1014080073EC09F0000E176E030E166E000E196EBF
:10141800000E186EF7EC0AF0590E176E0E0E186EC5
:1014280073EC09F0280E176E000E186E73EC09F0B5
:101438001200280E1F6E000E206E630E216E0E0E17
:10144800226E26C023F027C024F043EC08F0275072
:1014580011E1640E265CD8B00DD0275004E10A0EC5
:10146800265CD8A007D0610E176E0E0E186E73ECAE
:1014780009F00CD027500AE10A0E265CD8B006D035
:10148800600E176E0E0E186E73EC09F0280E176EAC
:10149800000E186E73EC09F01200000E1B6E000EA1
:1014A8001C6E000E1D6E000E1E6E13A008D0175085
:1014B8001B2618501C2219501D221A501E22D89083
:1014C8001736183619361A36D8901632153214329D
:1014D80013321350141015101610D8A4E6D71BC0D9
:1014E80013F01CC014F01DC015F01EC016F0120039
:1014F800000E196E000E186E15501610D8B41CD0B8
:10150800010E176E04D0D89015361636172A16AE67
:10151800FAD7D890183619361550135C1650145847
:10152800D8A005D01550135E1650145A1880D890BC
:1015380016321532172EEDD718C013F019C014F053
:101548001200156E15C013F00F0E1316133AF00E95
:10155800131615380F0B0F0B1310156E15C013F05B
:10156800330E1316D8901336D89013361540E84228
:101578003F0B330B1310156E15C013F0550E1316D1
:10158800D8901334146ED8901530550B1410156E6E
:101598001550120042C013F043C014F044C015F0B7
:1015A80045C016F06D0E176E4E0E186EC60E196EEB
:1015B800410E1A6E51EC0AF013C042F014C043F009
:1015C80015C044F016C045F0390E4226300E4322AD
:1015D800000E4422000E4522FF0E44141F6E7F0E9B
:1015E8004514206E12001650140DF35018241A6E6C
:1015F80017BE08D0175004E1020E165CD8A002D01E
:10160800180E1A261A50A5EC0AF01A6ED2EC0CF035
:101618000009D8A4FBD78C96F80EE9EC0CF01A5008
:10162800F00BE9EC0CF01A38F00B1009E9EC0CF0AF
:101638001200CEEC0AF01FC021F020C022F0000EEC
:10164800246E060E236EAEEC09F027C0D9FF28C021
:10165800DAFF21C0DEFF22C0DDFFCEEC0AF0010E6A
:101668001F16000E201620EE02F02750D92628500B
:10167800DA221FC0DEFF20C0DDFF1200176E16C081
:1016880018F0D890183615501826D89018361750D4
:101698001826D8901836182A183AF00E1816D2ECD0
:1016A8000CF00009D8A4FBD78C96F80EE9EC0CF0E6
:1016B8001850E9EC0CF0000EE9EC0CF08C861200E6
:1016C8001C501D10D8B418D0010E1E6E04D0D8902E
:1016D8001C361D361E2A1DAEFAD71C501A5C1D502A
:1016E8001B58D8A004D01C501A5E1D501B5AD89005
:1016F8001D321C321E2EF1D71AC01AF01BC01BF067
:101708001200D3507009D36E95989594959695824A
:1017180094908C8600F0560E136EB60EE82EFED707
:10172800132EFCD7560E136EB60EE82EFED7132EC8
:10173800FCD7560E136EB60EE82EFED7132EFCD726
:1017480012000E011E85F40E0E011E17050E0E0165
:101758001D13F50E0E011D17500E0E0130135F0EEE
:101768000E013017F10E0F011917310E0F01191361
:101778000F011A8F0F011A9D8F0E0F0139171200D2
:10178800000E176E010E166E000E196E030E186EFF
:10179800F7EC0AF0490E176E0E0E186E73EC09F08E
:1017A8002BEC0CF02BEC0CF086EC0CF0210E176EE9
:1017B8000E0E186E73EC09F01200060EF66E1A0E75
:1017C800F76E000EF86E00EE42F010EE0AF0090017
:1017D800F5CFEEFFE550E150FAE100EE2BF0170EE1
:1017E800EE6AE806FDE14C904C92000134EF07F0F8
:1017F800166E1650A5EC0AF0166ED2EC0CF0000925
:10180800D8A4FBD78C96FA0EE9EC0CF01650F00B26
:10181800E9EC0CF01638F00BE9EC0CF08C861200B1
:10182800000E176E010E166E000E196E000E186E61
:10183800F7EC0AF0350E176E0E0E186E73EC09F001
:101848002BEC0CF02BEC0CF086EC0CF01200000EDC
:10185800156E000E146E15BE06D015500EE1140E4E
:10186800145CD8B01200820E136EDE0EE82EFED77E
:10187800132EFCD7144A152AEED71200660E0E0155
:101888002A6F110E0E011F6F000E676E260EAC6ECA
:10189800900EAB6E190EAF6EAA0EAD6E1200000E52
:1018A800176E020E166E000E196E100E186EF7ECFB
:1018B8000AF067C026F068C027F01DEC0AF0120095
:1018C800000E176E020E166E000E196E090E186EB7
:1018D800F7EC0AF067C026F068C027F01DEC0AF0A4
:1018E8001200000E176E020E166E000E196E010E13
:1018F800186EF7EC0AF067C026F068C027F01DECF8
:101908000AF01200D2EC0CF00009D8A4FBD78C9690
:10191800F80EE9EC0CF0800EE9EC0CF0000EE9ECA6
:101928000CF08C861200136E06D08C808C9A1200F4
:101938008C808C9A12001350000AD8B4F6D7010A8A
:10194800D8A41200F5D7F294F28A9F9A9D8AC10E04
:101958000E01376F928AF18AF090F09CD08EF28E49
:10196800F28C1200000E0E01476FF80E9216030E4D
:1019780094168B68DE0E95169392000E896E1200EF
:1019880085EC0BF0A5EC0BF086EC0CF0010E156E57
:10199800000E166E010E42EC0BF012008C96FC0E37
:1019A800E9EC0CF0000EE9EC0CF0146E8C8600D01B
:1019B8001450010B1200D59ED58CCF0ED516D59696
:1019C800D550F80B0609D56E1200136E13C003FF2D
:1019D8000F011AA1FDD70F01035112003C50D8A4E2
:1019E80003D0010E3C6E1200000E3C6E12008CB04B
:1019F80003D08C808C8A12008C908C9A1200010083
:101A08000000060079000C001350020F896EF08662
:0A1A180012008A9212008A82120066
:020000040001F9
:10FFF000A0F7AFFF33F0FFF703FFFFFF1DF0F8F3AB
:00000001FF
