:0400000080EF00F09D
:100008003B82FACF01F0FBCF02F0E9CF03F0EACF51
:1000180004F0E1CF05F0E2CF06F0D9CF07F0DACF50
:1000280008F0F3CF09F0F4CF0AF0F6CF0BF0F7CFD2
:100038000CF0F8CF0DF0F5CF0EF03BC00FF03CC040
:1000480010F03DC011F03EC012F09EBA9DAA20D01B
:10005800ABB402D0ABA203D0010E2E6E19D0AECF36
:1000680030F0010E2D6E09D0010E2C6E10D0010E4D
:100078002B6E0DD0010E2A6E0AD03050AA0AD8B4C1
:10008800F3D7110AD8B4F3D7770AD8B4F3D79D9A1F
:10009800F0B0F0A604D0010E296EF096F090F2B4FC
:1000A800F2AA04D0010E286EF294F29A12C03EF021
:1000B80011C03DF010C03CF00FC03BF00EC0F5FF82
:1000C8000DC0F8FF0CC0F7FF0BC0F6FF0AC0F4FF25
:1000D80009C0F3FF08C0DAFF07C0D9FF06C0E2FF76
:1000E80005C0E1FF04C0EAFF03C0E9FF02C0FBFF4F
:0C00F80001C0FAFF3B92110065EF09F017
:100E00000001000A006400E80310274520204E205E
:100E100020442020204720204120204D2020452014
:100E200000504F494E54532042554C4C455453208A
:100E300054494D45002020454D42454444454420F9
:100E4000554E4956455253450053202054202041C9
:100E50002020522020542021002020002564000062
:100E6000D9EC09F029EC0AF043EC0AF00BEC0AF09B
:100E70001BEC0AF098EC09F0D58E48EC09F0ADD0E7
:100E80002850D8B405D0234A242A000E286EF28AAE
:100E90003750231803E138502418D8A48BD0050EFE
:100EA000326E88D0330E136E000E146EC6EC09F04D
:100EB00033C013F034C014F067EC0AF0330E136E35
:100EC000000E146EF2EC07F0040E4ED0214A222AD6
:100ED000010E4AD02C50D8B405D0000E3A6E0C0E3C
:100EE000396E61D02B50D8B408D056EC0AF031508E
:100EF000FBEC09F0000E2B6E58D02A50D8B41DD050
:100F000039503A10D8B419D06FEC0AF0000E206EA8
:100F1000000E1F6E20BE06D0100E1F5C270E20583C
:100F2000D8B003D01F4A202AF5D76DEC0AF0390655
:100F3000D8A03A06000E2A6E38D039503A10D8A4FC
:100F400002D0030E11D02950D8B447D031501D6EB5
:100F50001E6A35501D1841E136501E18D8A43DD0E8
:100F6000000E296EF086020E326E37D0254A262AF0
:100F7000880E25180AE1130E2618D8A406D05FECB7
:100F80000AF0000E266E000E256E2C50D8B425D027
:100F9000000E3A6E0C0E396E3150FBEC09F0000E6B
:100FA000266E000E256E000E2C6E9D8A16D0010E48
:100FB000276E13D03250000AD8B40FD0010AD8B42B
:100FC00071D7030AD8B482D7010AD8B4CFD7070A99
:100FD000D8B480D7010AD8B4EAD72750D8A480EF74
:100FE00000F04ED7000E1C6E000E1B6E13C0D9FF12
:100FF00014C0DAFF010EDBBE07D0010EDB5028E182
:10100000030EDE5CD8B024D020EE02F01350D926B7
:101010001450DA22DECF15F0DDCF16F013C0D9FF61
:1010200014C0DAFFDECF17F0DDCF18F0D8901736F6
:101030001836155017261650182217501B26185010
:101040001C22F00E1B26000E1C221BC08BFF120060
:10105000A00E156EFF0E166E20EE02F01350D9266C
:101060001450DA22DECF17F0DDCF18F013C0D9FF0D
:1010700014C0DAFFDECF19F0DDCF1AF0D8901936A0
:101080001A361750192618501A22193A1A3AF00E21
:101090001A1619500F0B1A12F00E191615501926A0
:1010A00016501A2219501B261A501C220F0E1B26EE
:1010B000000E1C221BC08BFF1200000E1C6E000EC7
:1010C0001B6E1BD01B501724196E1C5018201A6E53
:1010D00019C0F6FF1AC0F7FF000EF86E0D0EF76488
:1010E00003D00800F55005D0F6CFE9FFF7CFEAFFAF
:1010F000EF5080EC09F01B4A1C2A1B501724196E74
:101100001C5018201A6E19C0F6FF1AC0F7FF000E07
:10111000F86E0D0EF76403D00800F55005D0F6CF39
:10112000E9FFF7CFEAFFEF500009D8B41200CAD7A1
:10113000156E15C013F00F0E1316133AF00E13169A
:1011400015380F0B0F0B1310156E15C013F0330E5F
:101150001316D8901336D89013361540E8423F0B3B
:10116000330B1310156E15C013F0550E1316D890CF
:101170001334146ED8901530550B1410156E15508D
:1011800012001650140DF35018241A6E17BE08D012
:10119000175004E1020E165CD8A002D0180E1A26D1
:1011A0001A5098EC08F01A6E36EC0AF00009D8A430
:1011B000FBD78C96F80E4DEC0AF01A50F00B4DEC64
:1011C0000AF01A38F00B10094DEC0AF01200176EF5
:1011D00016C018F0D890183615501826D890183622
:1011E00017501826D8901836182A183AF00E1816E4
:1011F00036EC0AF00009D8A4FBD78C96F80E4DEC1B
:101200000AF018504DEC0AF0000E4DEC0AF08C86F6
:101210001200D3507009D36E959895949596958247
:1012200094908C8600F0560E136EB60EE82EFED704
:10123000132EFCD7560E136EB60EE82EFED7132EC5
:10124000FCD7560E136EB60EE82EFED7132EFCD723
:1012500012000E011E85F40E0E011E17050E0E0162
:101260001D13F50E0E011D17500E0E0130135F0EEB
:101270000E013017F10E0F011917310E0F0119135E
:101280000F011A8F0F011A9D8F0E0F0139171200CF
:10129000000E176E010E166E000E196E030E186EFC
:1012A000C1EC08F0490E176E0E0E186E5DEC08F0DA
:1012B000AFEC09F0AFEC09F0EAEC09F0210E176E83
:1012C0000E0E186E5DEC08F01200D60EF66E140EBF
:1012D000F76E000EF86E00EE37F010EE04F0090025
:1012E000F5CFEEFFE550E150FAE100EE21F0160EE9
:1012F000EE6AE806FDE13B903B92000130EF07F01B
:10130000166E165098EC08F0166E36EC0AF00009CE
:10131000D8A4FBD78C96FA0E4DEC0AF01650F00BC1
:101320004DEC0AF01638F00B4DEC0AF08C861200EA
:10133000000E176E010E166E000E196E000E186E5E
:10134000C1EC08F0350E176E0E0E186E5DEC08F04D
:10135000AFEC09F0AFEC09F0EAEC09F01200000E76
:10136000156E000E146E15BE06D015500EE1140E4B
:10137000145CD8B01200820E136EDE0EE82EFED77B
:10138000132EFCD7144A152AEED7120013C0D9FF2A
:1013900014C0DAFF000EDE6E000EDD6E20EE02F0ED
:1013A0001350D9261450DA22000EDE6E000EDD6EC8
:1013B0001200660E0E012A6F110E0E011F6F000E35
:1013C000676E260EAC6E900EAB6E190EAF6EAA0E47
:1013D000AD6E120036EC0AF00009D8A4FBD78C964B
:1013E000F80E4DEC0AF0800E4DEC0AF0000E4DECBC
:1013F0000AF08C861200136E06D08C808C9A120034
:101400008C808C9A12001350000AD8B4F6D7010AC7
:10141000D8A41200F5D7F294F28A9F9A9D8AC10E41
:101420000E01376F928AF18AF090F09CF086D08E90
:10143000F28EF28C120009EC09F029EC09F0EAECCA
:1014400009F0010E156E000E166E010EE7EC08F0A5
:101450001200000E0E01476FF80E9216180E941629
:10146000DE0E95169392000E896E12008C96FC0E7D
:101470004DEC0AF0000E4DEC0AF0146E8C8600D094
:101480001450010B1200D59ED59CCF0ED516D596C3
:10149000D550F80B0309D56E1200136E13C003FF6D
:1014A0000F011AA1FDD70F01035112003150D8A42A
:1014B00003D0010E316E1200000E316E12008CB09E
:1014C00003D08C808C8A12008C908C9A120013505E
:1014D000020F896E120078000C008A9212008A8234
:0214E0001200F8
:020000040001F9
:10FFF000A0F7AFFF33F0FFF703FFFFFF1DF0F8F3AB
:00000001FF
