:0400000054EF0AF0BF
:100E00000001000A006400E80310274520204E205E
:100E100020442020204720204120204D2020452014
:100E200000504F494E54532042554C4C455453208A
:100E300054494D45002020454D42454444454420F9
:100E4000554E4956455253450053202054202041C9
:100E50002020522020542021002020002564000062
:100E6000110E146E000E156E94D0250E1A18D8B4FB
:100E700009D00DC0D9FF0EC0DAFF1AC0DFFF0D4A3E
:100E80000E2A87D0000E166E0FC0F6FF10C0F7FFB7
:100E90000F4A102A000EF86E0800F5CF1AF01A500B
:100EA000000AD8B484D0640AD8B403D00D0AD8A4F8
:100EB00070D014C0D9FF15C0DAFFDECF18F0DDCF37
:100EC00019F0020E1426000E152219AE06D0030EDC
:100ED0001612186C191ED8B0192A010E1A6E050EBA
:100EE0001A18D8B415D01A50020D010EF324F66E5C
:100EF0000E0EF420F76EF86A000EF8220900F55085
:100F0000185C0900F5501958D8A002D01A2AE7D762
:100F100016C013F0030E1316D8B408D00DC0D9FFB5
:100F20000EC0DAFF2D0EDF6E0D4A0E2A1AC017F022
:100F30002CD01750020D010EF324F66E0E0EF42085
:100F4000F76EF86A000EF8220900F5CF03F00A00E8
:100F5000F5CF04F018C001F019C002F07CEC08F0E5
:100F600001C008F002C009F0000E0B6E0A0E0A6EF6
:100F700016EC09F00850300F1A6E0DC0D9FF0EC0E4
:100F8000DAFF1AC0DFFF0D4A0E2A17061728D8A469
:100F9000D0D70FC0F6FF10C0F7FF0F4A102A000E7F
:100FA000F86E0800F5CF1AF01A50D8A45ED70DC01D
:100FB000D9FF0EC0DAFF000EDF6E1200000E0A6EBF
:100FC000000E096E1BD009500524076E0A5006203A
:100FD000086E07C0F6FF08C0F7FF000EF86E0D0E92
:100FE000F76403D00800F55005D0F6CFE9FFF7CF3E
:100FF000EAFFEF5093EC09F0094A0A2A0950052448
:10100000076E0A500620086E07C0F6FF08C0F7FFFB
:10101000000EF86E0D0EF76403D00800F55005D0F1
:10102000F6CFE9FFF7CFEAFFEF500009D8B412007E
:10103000CAD71D0E0D6E000E0E6E5C0E0F6E0E0EDC
:10104000106E1BC011F01CC012F030EC07F01C50E9
:1010500011E1640E1B5CD8B00DD01C5004E10A0EE7
:101060001B5CD8A007D05A0E056E0E0E066EDEEC85
:1010700007F00CD01C500AE10A0E1B5CD8B006D059
:10108000590E056E0E0E066EDEEC07F01D0E056E97
:10109000000E066EDEEC07F01200000E226E30EC41
:1010A0000AF0ABEC09F0000E236E140E246E780EDD
:1010B000256E76EC09F019D0C2EC09F023C020F0BF
:1010C000216A0EEC0AF0232A24C020F0216AFDECEC
:1010D00009F0240625C020F0216AECEC09F0250671
:1010E0002450D8A402D0140E236E2550D8A4E4D7DF
:1010F000D9EC09F000EF00F0000E066E000E056E50
:1011000003500410D8B41CD0010E076E04D0D89040
:1011100003360436072A04AEFAD7D89005360636C9
:101120000350015C04500258D8A005D00350015E62
:101130000450025A0580D89004320332072EEDD7AE
:1011400005C001F006C002F01200036E03C001F0FA
:101150000F0E0116013AF00E011603380F0B0F0B9C
:101160000110036E03C001F0330E0116D890013652
:10117000D89001360340E8423F0B330B0110036E59
:1011800003C001F0550E0116D8900134026ED890BC
:101190000330550B0210036E035012000450140D5F
:1011A000F3500624086E05BE08D0055004E1020E77
:1011B000045CD8A002D0180E08260850A5EC08F050
:1011C000086E3EEC0AF00009D8A4FBD78C96F80E06
:1011D0004BEC0AF00850F00B4BEC0AF00838F00B1F
:1011E00010094BEC0AF01200056E04C006F0D8900E
:1011F000063603500626D890063605500626D890A7
:101200000636062A063AF00E06163EEC0AF00009EB
:10121000D8A4FBD78C96F80E4BEC0AF006504BEC9A
:101220000AF0000E4BEC0AF08C8612000A500B10EC
:10123000D8B418D0010E0C6E04D0D8900A360B36F4
:101240000C2A0BAEFAD70A50085C0B500958D8A0EC
:1012500004D00A50085E0B50095AD8900B320A325B
:101260000C2EF1D708C008F009C009F01200D350C5
:101270007009D36E959895949596958294908C86E6
:1012800000F0560E016EB60EE82EFED7012EFCD7EA
:10129000560E016EB60EE82EFED7012EFCD7560E66
:1012A000016EB60EE82EFED7012EFCD712000E01FD
:1012B0001E85F40E0E011E17050E0E011D13F50EF0
:1012C0000E011D17500E0E0130135F0E0E01301768
:1012D000F10E0F011917310E0F0119130F011A8F9B
:1012E0000F011A9D8F0E0F0139171200000E056EA7
:1012F000010E046E000E076E030E066ECEEC08F0B3
:10130000490E056E0E0E066EDEEC07F0C2EC09F01B
:10131000C2EC09F01FEC0AF0210E056E0E0E066EEF
:10132000DEEC07F01200046E0450A5EC08F0046E29
:101330003EEC0AF00009D8A4FBD78C96FA0E4BECD1
:101340000AF00450F00B4BEC0AF00438F00B4BECB5
:101350000AF08C861200000E056E010E046E000E5F
:10136000076E000E066ECEEC08F0350E056E0E0E02
:10137000066EDEEC07F0C2EC09F0C2EC09F01FECDF
:101380000AF01200000E036E000E026E03BE06D0BD
:1013900003500EE1140E025CD8B01200820E016EF2
:1013A000DE0EE82EFED7012EFCD7024A032AEED726
:1013B00012001FEC0AF0000E056E010E046E000E06
:1013C000076E000E066ECEEC08F00B0E056E0E0ECC
:1013D000066EDEEC07F01200000E056E020E046EC3
:1013E000000E076E100E066ECEEC08F020C01BF04B
:1013F00021C01CF019EC08F01200000E056E020E60
:10140000046E000E076E090E066ECEEC08F020C0CA
:101410001BF021C01CF019EC08F01200000E056E44
:10142000020E046E000E076E010E066ECEEC08F082
:1014300020C01BF021C01CF019EC08F012003EEC9B
:101440000AF00009D8A4FBD78C96F80E4BEC0AF0F2
:10145000800E4BEC0AF0000E4BEC0AF08C8612006A
:1014600037EC09F057EC09F01FEC0AF0010E036E9F
:10147000000E046E010EF4EC08F012008C96FC0EC7
:101480004BEC0AF0000E4BEC0AF0026E8C8600D09A
:101490000250010B1200016E01C003FF0F011AA1DF
:0E14A000FDD70F010351120000014DEF08F0BF
:020000040001F9
:10FFF000A0F728FF33F0FFF703FFFFFF1DF0F8F332
:00000001FF
